:0600000002002102032CA6
:03000B000201717E
:0100130032BA
:03001B0002036D70
:20007A007521C07522F97523A47524B07525997526927527827528F8752980752A90752BFB
:20009A00BF752C01752D01752E01752FD0753007753100E4F532F533F534F535F536F537FB
:1000BA00753801F539F53AF53BF53CF53D02001E78
:03001E000203C515
:2000CA00E5822421F987A022AE82AF838E048F051EBEFF011FEC4D70F322D2B700D2B600D6
:2000EA00C2B700C2B622C2B700D2B600D2B70022D2B600C2B622AF827E008F05530580ED0D
:20010A0024FF92B78F05ED2DFF00D2B600C2B6000EBE080040E4D2B7D2B60020B7FDC2B667
:20012A0000227F00D2B77E00BE080050128F05ED2DFFD2B6000030B7010FC2B60E80E9C208
:20014A00B78F8222438901758CED758AFFD2A9D28C22438910758DFC758B17D2ABD28E2207
:20016A00D288D2A8D2AF22C020C0E0C0F0C082C083C007C006C005C004C003C002C001C02D
:20018A0000C0D075D000758CED758AFFE53104F531E53124FC500375310075A0FF20900E53
:2001AA00853A32853B33853C34853D35800C852F32853033753400753500E531FF24FC5033
:2001CA00030202E7EF2F2F9001D5730201E102020F0202580202A0D291C294A2949293A254
:2001EA0093929275080AE4F509F50AF50B8532828533838534F0E5351205F2AC828C821248
:20020A0000CA0202E7D292C294A2949293A293929175080AE4F509F50AF50B853282853359
:20022A00838534F0E535120675AC82AD83AEF0FF75080AE4F509F50AF50B8C828D838EF0E2
:20024A00EF1205F2AC828C821200CA0202E7D293C294A2949292A2929291750864E4F5096A
:20026A00F50AF50B8532828533838534F0E535120675AC82AD83AEF0FF75080AE4F509F558
:20028A000AF50B8C828D838EF0EF1205F2AC828C821200CA8047D294C293A2939292A2928F
:2002AA0092917508E8750903E4F50AF50B8532828533838534F0E535120675AC82AD83AE78
:2002CA00F0FF75080AE4F509F50AF50B8C828D838EF0EF1205F2AC828C821200CAD0D0D0A1
:2002EA0000D001D002D003D004D005D006D007D083D082D0F0D0E0D02032AE82AF837C0013
:20030A007D008E028F03C3EC9AED9B50147A707B001ABAFF011BEA4B70F70CBC00E40D80D6
:20032A00E122C020C0E0C0F0C082C083C007C006C005C004C003C002C001C000C0D075D00A
:20034A0000C29012015CD0D0D000D001D002D003D004D005D006D007D083D082D0F0D0E081
:20036A00D02032C0E0C007C006C005C004C0D075D000758DFC758B17053AE4B53A0C053B53
:20038A00B53B07053CB53C02053DAC2FAD307E007F00C3E53A9CE53B9DE53C9EE53D9F4036
:2003AA000DD290C28EE4F53AF53BF53CF53DD0D0D004D005D006D007D0E0321200E4758209
:2003CA00A01201007582001201007582011201001200E47582A112010012012CAF82C00773
:2003EA001200FA12012CAE82C0061200FA1200F0D006D0078F05E4FFFCEE4FF52FEC4DF5F5
:20040A003012014E9003E812030412016A30B00302049AC3740F952F742795305007E4F513
:20042A002FF530800B7401252FF52FE43530F53090003212030420B0607488C39538FE746F
:20044A00139539FFC3EE9536EF95375039E4F536F537C3740F952F742795305008752F0150
:20046A00753000800B7401252FF52FE43530F530C3E5389494E5399411500B741E2538F5DD
:20048A0038E43539F5390536E4B536AA053780A6E4F536F537F538F53920B179C3740195D7
:2004AA002FE495304008752F0F7530278009152F74FFB52F02153090003212030420B15E1E
:2004CA007488C39538FE74139539FFC3EE9536EF95375037E4F536F537C3E52F9401E530BA
:2004EA0094005008752F0F7530278009152F74FFB52F021530C3E5389494E5399411500BF6
:20050A00741E2538F538E43539F5390536E4B536AC053780A8E4F536F537F538F539A28261
:20052A00E433F52DB52C02804DC28CAF2FAE307401B52D31C007C0061200E47582A0120109
:20054A0000758200120100758201120100D0068E82120100D0078F821201001200F012056F
:20056A0086D28C8011852BA0D294A2949293A2939292A2929291852D2C0204177F00BF07FB
:20058A000050647E03EE20E75BBE0002800FBE01028018BE02028021BE0338802AD291C2F9
:2005AA0094A2949293A29392928028D292C294A2949293A2939291801AD293C294A29492B7
:2005CA0092A2929291800CD294C293A2939292A2929291900046C007C006120304D006D00F
:0805EA00071E80A10F8097227B
:2005F200F9E5084509450A450B60777800C308E50B20E73BE50825E0F508E50933F509E5D7
:200612000A33F50AE50B33F50BE5829508E5839509E5F0950AE9950B50D4C3E50B13F50B78
:20063200E50A13F50AE50913F509E50813F508E5829508FCE5839509FDE5F0950AFEE995B8
:200652000B4007F98EF08D838C82C3E50B13F50BE50A13F50AE50913F509E50813F508D806
:03067200CEE922AC
:20067500FB7A20E4FCFDFEFFE5822582F582E58333F583E5F033F5F0EB33FB4017DAE980BE
:2006950042E5822582F582E58333F583E5F033F5F0EB33FBEC33FCED33FDEE33FEEF33FFED
:2006B500EC9508ED9509EE950AEF950B4013EC9508FCED9509FDEE950AFEEF950BFF4382B7
:0506D50001DABEEB227A
:06005000E478FFF6D8FD84
:20002E007900E94400601B7A009006DE780175A000E493F2A308B8000205A0D9F4DAF27594
:02004E00A0FF11
:200056007800E84400600A790175A000E4F309D8FC7800E84400600C7900900001E4F0A3A8
:04007600D8FCD9FADF
:0D00210075813D1206DAE582600302001EC3
:0406DA007582002203
:00000001FF
